{
  "_format": "hh-sol-artifact-1",
  "contractName": "PayStream",
  "sourceName": "contracts/PayStream.sol",
  "abi": [
    {
      "inputs": [
        {
          "internalType": "address",
          "name": "initialOwner",
          "type": "address"
        }
      ],
      "stateMutability": "nonpayable",
      "type": "constructor"
    },
    {
      "inputs": [
        {
          "internalType": "address",
          "name": "owner",
          "type": "address"
        }
      ],
      "name": "OwnableInvalidOwner",
      "type": "error"
    },
    {
      "inputs": [
        {
          "internalType": "address",
          "name": "account",
          "type": "address"
        }
      ],
      "name": "OwnableUnauthorizedAccount",
      "type": "error"
    },
    {
      "inputs": [],
      "name": "ReentrancyGuardReentrantCall",
      "type": "error"
    },
    {
      "anonymous": false,
      "inputs": [
        {
          "indexed": true,
          "internalType": "address",
          "name": "employee",
          "type": "address"
        },
        {
          "indexed": false,
          "internalType": "uint256",
          "name": "amount",
          "type": "uint256"
        },
        {
          "indexed": false,
          "internalType": "string",
          "name": "reason",
          "type": "string"
        }
      ],
      "name": "BonusSent",
      "type": "event"
    },
    {
      "anonymous": false,
      "inputs": [
        {
          "indexed": true,
          "internalType": "address",
          "name": "sender",
          "type": "address"
        },
        {
          "indexed": false,
          "internalType": "uint256",
          "name": "amount",
          "type": "uint256"
        }
      ],
      "name": "Deposit",
      "type": "event"
    },
    {
      "anonymous": false,
      "inputs": [
        {
          "indexed": true,
          "internalType": "address",
          "name": "previousOwner",
          "type": "address"
        },
        {
          "indexed": true,
          "internalType": "address",
          "name": "newOwner",
          "type": "address"
        }
      ],
      "name": "OwnershipTransferred",
      "type": "event"
    },
    {
      "anonymous": false,
      "inputs": [
        {
          "indexed": true,
          "internalType": "address",
          "name": "employee",
          "type": "address"
        },
        {
          "indexed": false,
          "internalType": "uint256",
          "name": "finalPayout",
          "type": "uint256"
        }
      ],
      "name": "StreamCancelled",
      "type": "event"
    },
    {
      "anonymous": false,
      "inputs": [
        {
          "indexed": true,
          "internalType": "address",
          "name": "employee",
          "type": "address"
        },
        {
          "indexed": false,
          "internalType": "uint256",
          "name": "ratePerSecond",
          "type": "uint256"
        }
      ],
      "name": "StreamCreated",
      "type": "event"
    },
    {
      "anonymous": false,
      "inputs": [
        {
          "indexed": true,
          "internalType": "address",
          "name": "employee",
          "type": "address"
        }
      ],
      "name": "StreamPaused",
      "type": "event"
    },
    {
      "anonymous": false,
      "inputs": [
        {
          "indexed": true,
          "internalType": "address",
          "name": "employee",
          "type": "address"
        }
      ],
      "name": "StreamResumed",
      "type": "event"
    },
    {
      "anonymous": false,
      "inputs": [
        {
          "indexed": false,
          "internalType": "uint256",
          "name": "amount",
          "type": "uint256"
        }
      ],
      "name": "TaxWithdrawn",
      "type": "event"
    },
    {
      "anonymous": false,
      "inputs": [
        {
          "indexed": true,
          "internalType": "address",
          "name": "employee",
          "type": "address"
        },
        {
          "indexed": false,
          "internalType": "uint256",
          "name": "amount",
          "type": "uint256"
        },
        {
          "indexed": false,
          "internalType": "uint256",
          "name": "tax",
          "type": "uint256"
        }
      ],
      "name": "Withdraw",
      "type": "event"
    },
    {
      "inputs": [],
      "name": "YIELD_RATE_BPS",
      "outputs": [
        {
          "internalType": "uint256",
          "name": "",
          "type": "uint256"
        }
      ],
      "stateMutability": "view",
      "type": "function"
    },
    {
      "inputs": [
        {
          "internalType": "address",
          "name": "",
          "type": "address"
        }
      ],
      "name": "bonusReceived",
      "outputs": [
        {
          "internalType": "uint256",
          "name": "",
          "type": "uint256"
        }
      ],
      "stateMutability": "view",
      "type": "function"
    },
    {
      "inputs": [
        {
          "internalType": "address",
          "name": "employee",
          "type": "address"
        }
      ],
      "name": "cancelStream",
      "outputs": [],
      "stateMutability": "nonpayable",
      "type": "function"
    },
    {
      "inputs": [
        {
          "internalType": "address",
          "name": "employee",
          "type": "address"
        },
        {
          "internalType": "uint256",
          "name": "ratePerSecond",
          "type": "uint256"
        },
        {
          "internalType": "uint256",
          "name": "taxPercent",
          "type": "uint256"
        }
      ],
      "name": "createStream",
      "outputs": [],
      "stateMutability": "nonpayable",
      "type": "function"
    },
    {
      "inputs": [],
      "name": "deposit",
      "outputs": [],
      "stateMutability": "payable",
      "type": "function"
    },
    {
      "inputs": [
        {
          "internalType": "uint256",
          "name": "",
          "type": "uint256"
        }
      ],
      "name": "employeeList",
      "outputs": [
        {
          "internalType": "address",
          "name": "",
          "type": "address"
        }
      ],
      "stateMutability": "view",
      "type": "function"
    },
    {
      "inputs": [
        {
          "internalType": "address",
          "name": "employee",
          "type": "address"
        }
      ],
      "name": "getAccrued",
      "outputs": [
        {
          "internalType": "uint256",
          "name": "",
          "type": "uint256"
        }
      ],
      "stateMutability": "view",
      "type": "function"
    },
    {
      "inputs": [],
      "name": "getAllEmployees",
      "outputs": [
        {
          "internalType": "address[]",
          "name": "",
          "type": "address[]"
        }
      ],
      "stateMutability": "view",
      "type": "function"
    },
    {
      "inputs": [],
      "name": "getYieldAccrued",
      "outputs": [
        {
          "internalType": "uint256",
          "name": "",
          "type": "uint256"
        }
      ],
      "stateMutability": "view",
      "type": "function"
    },
    {
      "inputs": [],
      "name": "owner",
      "outputs": [
        {
          "internalType": "address",
          "name": "",
          "type": "address"
        }
      ],
      "stateMutability": "view",
      "type": "function"
    },
    {
      "inputs": [
        {
          "internalType": "address",
          "name": "employee",
          "type": "address"
        }
      ],
      "name": "pauseStream",
      "outputs": [],
      "stateMutability": "nonpayable",
      "type": "function"
    },
    {
      "inputs": [],
      "name": "renounceOwnership",
      "outputs": [],
      "stateMutability": "nonpayable",
      "type": "function"
    },
    {
      "inputs": [
        {
          "internalType": "address",
          "name": "employee",
          "type": "address"
        }
      ],
      "name": "resumeStream",
      "outputs": [],
      "stateMutability": "nonpayable",
      "type": "function"
    },
    {
      "inputs": [
        {
          "internalType": "address",
          "name": "employee",
          "type": "address"
        },
        {
          "internalType": "uint256",
          "name": "amount",
          "type": "uint256"
        },
        {
          "internalType": "string",
          "name": "reason",
          "type": "string"
        }
      ],
      "name": "sendBonus",
      "outputs": [],
      "stateMutability": "nonpayable",
      "type": "function"
    },
    {
      "inputs": [
        {
          "internalType": "address",
          "name": "",
          "type": "address"
        }
      ],
      "name": "streams",
      "outputs": [
        {
          "internalType": "uint256",
          "name": "ratePerSecond",
          "type": "uint256"
        },
        {
          "internalType": "uint256",
          "name": "startTime",
          "type": "uint256"
        },
        {
          "internalType": "uint256",
          "name": "lastWithdrawTime",
          "type": "uint256"
        },
        {
          "internalType": "uint256",
          "name": "taxPercent",
          "type": "uint256"
        },
        {
          "internalType": "bool",
          "name": "active",
          "type": "bool"
        },
        {
          "internalType": "bool",
          "name": "exists",
          "type": "bool"
        }
      ],
      "stateMutability": "view",
      "type": "function"
    },
    {
      "inputs": [],
      "name": "taxVaultBalance",
      "outputs": [
        {
          "internalType": "uint256",
          "name": "",
          "type": "uint256"
        }
      ],
      "stateMutability": "view",
      "type": "function"
    },
    {
      "inputs": [],
      "name": "totalBonusesPaid",
      "outputs": [
        {
          "internalType": "uint256",
          "name": "",
          "type": "uint256"
        }
      ],
      "stateMutability": "view",
      "type": "function"
    },
    {
      "inputs": [
        {
          "internalType": "address",
          "name": "newOwner",
          "type": "address"
        }
      ],
      "name": "transferOwnership",
      "outputs": [],
      "stateMutability": "nonpayable",
      "type": "function"
    },
    {
      "inputs": [],
      "name": "treasuryBalance",
      "outputs": [
        {
          "internalType": "uint256",
          "name": "",
          "type": "uint256"
        }
      ],
      "stateMutability": "view",
      "type": "function"
    },
    {
      "inputs": [],
      "name": "treasuryDepositTime",
      "outputs": [
        {
          "internalType": "uint256",
          "name": "",
          "type": "uint256"
        }
      ],
      "stateMutability": "view",
      "type": "function"
    },
    {
      "inputs": [],
      "name": "withdraw",
      "outputs": [],
      "stateMutability": "nonpayable",
      "type": "function"
    },
    {
      "inputs": [],
      "name": "withdrawTax",
      "outputs": [],
      "stateMutability": "nonpayable",
      "type": "function"
    },
    {
      "stateMutability": "payable",
      "type": "receive"
    }
  ],
  "bytecode": "0x60806040523480156200001157600080fd5b5033600073ffffffffffffffffffffffffffffffffffffffff168173ffffffffffffffffffffffffffffffffffffffff1603620000885760006040517f1e4fbdf70000000000000000000000000000000000000000000000000000000081526004016200007f9190620001b7565b60405180910390fd5b6200009981620000ae60201b60201c565b506001808190555042600581905550620001d4565b60008060009054906101000a900473ffffffffffffffffffffffffffffffffffffffff169050816000806101000a81548173ffffffffffffffffffffffffffffffffffffffff021916908373ffffffffffffffffffffffffffffffffffffffff1602179055508173ffffffffffffffffffffffffffffffffffffffff168173ffffffffffffffffffffffffffffffffffffffff167f8be0079c531659141344cd1fd0a4f28419497f9722a3daafe3b4186f6b6457e060405160405180910390a35050565b600073ffffffffffffffffffffffffffffffffffffffff82169050919050565b60006200019f8262000172565b9050919050565b620001b18162000192565b82525050565b6000602082019050620001ce6000830184620001a6565b92915050565b61266980620001e46000396000f3fe6080604052600436106101395760003560e01c8063c3b2d07a116100ab578063d0e30db01161006f578063d0e30db014610412578063d7290fed1461041c578063dfa20f0a14610445578063e3366fed1461045c578063f2fde38b14610487578063f3b16178146104b057610140565b8063c3b2d07a1461032d578063c4663add1461036a578063cd9e3fe814610395578063cf72c7bb146103be578063cfa0e4e5146103e957610140565b806363f44d1e116100fd57806363f44d1e14610204578063715018a61461024157806383699275146102585780638da5cb5b1461029a5780638f885226146102c55780639869e137146102f057610140565b80630bf2b21a14610145578063313dab201461016e57806333217235146101995780633c5ea4c0146101c25780633ccfd60b146101ed57610140565b3661014057005b600080fd5b34801561015157600080fd5b5061016c60048036038101906101679190611aa7565b6104db565b005b34801561017a57600080fd5b5061018361065b565b6040516101909190611aed565b60405180910390f35b3480156101a557600080fd5b506101c060048036038101906101bb9190611b99565b610661565b005b3480156101ce57600080fd5b506101d76108fd565b6040516101e49190611aed565b60405180910390f35b3480156101f957600080fd5b50610202610903565b005b34801561021057600080fd5b5061022b60048036038101906102269190611aa7565b610a3d565b6040516102389190611aed565b60405180910390f35b34801561024d57600080fd5b50610256610a55565b005b34801561026457600080fd5b5061027f600480360381019061027a9190611aa7565b610a69565b60405161029196959493929190611c28565b60405180910390f35b3480156102a657600080fd5b506102af610abf565b6040516102bc9190611c98565b60405180910390f35b3480156102d157600080fd5b506102da610ae8565b6040516102e79190611aed565b60405180910390f35b3480156102fc57600080fd5b5061031760048036038101906103129190611aa7565b610aee565b6040516103249190611aed565b60405180910390f35b34801561033957600080fd5b50610354600480360381019061034f9190611cb3565b610be5565b6040516103619190611c98565b60405180910390f35b34801561037657600080fd5b5061037f610c24565b60405161038c9190611aed565b60405180910390f35b3480156103a157600080fd5b506103bc60048036038101906103b79190611ce0565b610c8a565b005b3480156103ca57600080fd5b506103d3610f68565b6040516103e09190611aed565b60405180910390f35b3480156103f557600080fd5b50610410600480360381019061040b9190611aa7565b610f6e565b005b61041a61113f565b005b34801561042857600080fd5b50610443600480360381019061043e9190611aa7565b611205565b005b34801561045157600080fd5b5061045a611414565b005b34801561046857600080fd5b5061047161155c565b60405161047e9190611df1565b60405180910390f35b34801561049357600080fd5b506104ae60048036038101906104a99190611aa7565b6115ea565b005b3480156104bc57600080fd5b506104c5611670565b6040516104d29190611aed565b60405180910390f35b6104e3611676565b600660008273ffffffffffffffffffffffffffffffffffffffff1673ffffffffffffffffffffffffffffffffffffffff16815260200190815260200160002060040160019054906101000a900460ff16610572576040517f08c379a000000000000000000000000000000000000000000000000000000000815260040161056990611e70565b60405180910390fd5b600061057d826116fd565b9050600660008373ffffffffffffffffffffffffffffffffffffffff1673ffffffffffffffffffffffffffffffffffffffff1681526020019081526020016000206000808201600090556001820160009055600282016000905560038201600090556004820160006101000a81549060ff02191690556004820160016101000a81549060ff021916905550508173ffffffffffffffffffffffffffffffffffffffff167faa0e98a1d5c3185ee3383cda00889be32c0dab109b50a7f8d91aa77b3c749aae8260405161064f9190611aed565b60405180910390a25050565b60025481565b610669611676565b610671611924565b600073ffffffffffffffffffffffffffffffffffffffff168473ffffffffffffffffffffffffffffffffffffffff16036106e0576040517f08c379a00000000000000000000000000000000000000000000000000000000081526004016106d790611edc565b60405180910390fd5b60008311610723576040517f08c379a000000000000000000000000000000000000000000000000000000000815260040161071a90611f48565b60405180910390fd5b826002541015610768576040517f08c379a000000000000000000000000000000000000000000000000000000000815260040161075f90611fb4565b60405180910390fd5b826002600082825461077a9190612003565b9250508190555082600460008282546107939190612037565b9250508190555082600760008673ffffffffffffffffffffffffffffffffffffffff1673ffffffffffffffffffffffffffffffffffffffff16815260200190815260200160002060008282546107e99190612037565b9250508190555060008473ffffffffffffffffffffffffffffffffffffffff16846040516108169061209c565b60006040518083038185875af1925050503d8060008114610853576040519150601f19603f3d011682016040523d82523d6000602084013e610858565b606091505b505090508061089c576040517f08c379a0000000000000000000000000000000000000000000000000000000008152600401610893906120fd565b60405180910390fd5b8473ffffffffffffffffffffffffffffffffffffffff167f069aa47cf4c020a0945eb5384916b03c5a1c8e75dd0296043f08e812934327748585856040516108e69392919061216a565b60405180910390a2506108f761196a565b50505050565b60045481565b61090b611924565b600660003373ffffffffffffffffffffffffffffffffffffffff1673ffffffffffffffffffffffffffffffffffffffff16815260200190815260200160002060040160019054906101000a900460ff1661099a576040517f08c379a0000000000000000000000000000000000000000000000000000000008152600401610991906121e8565b60405180910390fd5b600660003373ffffffffffffffffffffffffffffffffffffffff1673ffffffffffffffffffffffffffffffffffffffff16815260200190815260200160002060040160009054906101000a900460ff16610a29576040517f08c379a0000000000000000000000000000000000000000000000000000000008152600401610a2090612254565b60405180910390fd5b610a32336116fd565b50610a3b61196a565b565b60076020528060005260406000206000915090505481565b610a5d611676565b610a676000611973565b565b60066020528060005260406000206000915090508060000154908060010154908060020154908060030154908060040160009054906101000a900460ff16908060040160019054906101000a900460ff16905086565b60008060009054906101000a900473ffffffffffffffffffffffffffffffffffffffff16905090565b60055481565b600080600660008473ffffffffffffffffffffffffffffffffffffffff1673ffffffffffffffffffffffffffffffffffffffff1681526020019081526020016000206040518060c0016040529081600082015481526020016001820154815260200160028201548152602001600382015481526020016004820160009054906101000a900460ff161515151581526020016004820160019054906101000a900460ff16151515158152505090508060a001511580610bae57508060800151155b15610bbd576000915050610be0565b8060000151816040015142610bd29190612003565b610bdc9190612274565b9150505b919050565b60088181548110610bf557600080fd5b906000526020600020016000915054906101000a900473ffffffffffffffffffffffffffffffffffffffff1681565b6000806002541480610c3857506000600554145b15610c465760009050610c87565b600060055442610c569190612003565b905064496cebb8008161012c600254610c6f9190612274565b610c799190612274565b610c8391906122e5565b9150505b90565b610c92611676565b600073ffffffffffffffffffffffffffffffffffffffff168373ffffffffffffffffffffffffffffffffffffffff1603610d01576040517f08c379a0000000000000000000000000000000000000000000000000000000008152600401610cf890612362565b60405180910390fd5b600660008473ffffffffffffffffffffffffffffffffffffffff1673ffffffffffffffffffffffffffffffffffffffff16815260200190815260200160002060040160019054906101000a900460ff1615610d91576040517f08c379a0000000000000000000000000000000000000000000000000000000008152600401610d88906123ce565b60405180910390fd5b6064811115610dd5576040517f08c379a0000000000000000000000000000000000000000000000000000000008152600401610dcc9061243a565b60405180910390fd5b6040518060c0016040528083815260200142815260200142815260200182815260200160011515815260200160011515815250600660008573ffffffffffffffffffffffffffffffffffffffff1673ffffffffffffffffffffffffffffffffffffffff1681526020019081526020016000206000820151816000015560208201518160010155604082015181600201556060820151816003015560808201518160040160006101000a81548160ff02191690831515021790555060a08201518160040160016101000a81548160ff0219169083151502179055509050506008839080600181540180825580915050600190039060005260206000200160009091909190916101000a81548173ffffffffffffffffffffffffffffffffffffffff021916908373ffffffffffffffffffffffffffffffffffffffff1602179055508273ffffffffffffffffffffffffffffffffffffffff167f1bd63527042f119292b792487cee2f3e2f788737aa8ce9c0b5e79a2e17bd6bab83604051610f5b9190611aed565b60405180910390a2505050565b60035481565b610f76611676565b600660008273ffffffffffffffffffffffffffffffffffffffff1673ffffffffffffffffffffffffffffffffffffffff16815260200190815260200160002060040160019054906101000a900460ff16611005576040517f08c379a0000000000000000000000000000000000000000000000000000000008152600401610ffc90611e70565b60405180910390fd5b600660008273ffffffffffffffffffffffffffffffffffffffff1673ffffffffffffffffffffffffffffffffffffffff16815260200190815260200160002060040160009054906101000a900460ff16611094576040517f08c379a000000000000000000000000000000000000000000000000000000000815260040161108b906124a6565b60405180910390fd5b61109d816116fd565b506000600660008373ffffffffffffffffffffffffffffffffffffffff1673ffffffffffffffffffffffffffffffffffffffff16815260200190815260200160002060040160006101000a81548160ff0219169083151502179055508073ffffffffffffffffffffffffffffffffffffffff167fa3cec158dd61ad7fad02b025a7140acc826d6e778f78db24b46ff4868013d4dd60405160405180910390a250565b611147611676565b6000341161118a576040517f08c379a000000000000000000000000000000000000000000000000000000000815260040161118190611f48565b60405180910390fd5b346002600082825461119c9190612037565b925050819055506000600554036111b557426005819055505b3373ffffffffffffffffffffffffffffffffffffffff167fe1fffcc4923d04b559f4d29a8bfc6cda04eb5b0d3c460751c2402c5c5cc9109c346040516111fb9190611aed565b60405180910390a2565b61120d611676565b600660008273ffffffffffffffffffffffffffffffffffffffff1673ffffffffffffffffffffffffffffffffffffffff16815260200190815260200160002060040160019054906101000a900460ff1661129c576040517f08c379a000000000000000000000000000000000000000000000000000000000815260040161129390611e70565b60405180910390fd5b600660008273ffffffffffffffffffffffffffffffffffffffff1673ffffffffffffffffffffffffffffffffffffffff16815260200190815260200160002060040160009054906101000a900460ff161561132c576040517f08c379a000000000000000000000000000000000000000000000000000000000815260040161132390612512565b60405180910390fd5b6001600660008373ffffffffffffffffffffffffffffffffffffffff1673ffffffffffffffffffffffffffffffffffffffff16815260200190815260200160002060040160006101000a81548160ff02191690831515021790555042600660008373ffffffffffffffffffffffffffffffffffffffff1673ffffffffffffffffffffffffffffffffffffffff168152602001908152602001600020600201819055508073ffffffffffffffffffffffffffffffffffffffff167f9daa495ea50c111ff2e29a61b762a95626864c63ed421249d542c4480892a3ec60405160405180910390a250565b61141c611676565b6000600354905060008111611466576040517f08c379a000000000000000000000000000000000000000000000000000000000815260040161145d9061257e565b60405180910390fd5b60006003819055506000611478610abf565b73ffffffffffffffffffffffffffffffffffffffff168260405161149b9061209c565b60006040518083038185875af1925050503d80600081146114d8576040519150601f19603f3d011682016040523d82523d6000602084013e6114dd565b606091505b5050905080611521576040517f08c379a0000000000000000000000000000000000000000000000000000000008152600401611518906120fd565b60405180910390fd5b7fe161304d535664a41d07c34f4cd2ba815cdb901b859cf3da44bb8f25031e5cb8826040516115509190611aed565b60405180910390a15050565b606060088054806020026020016040519081016040528092919081815260200182805480156115e057602002820191906000526020600020905b8160009054906101000a900473ffffffffffffffffffffffffffffffffffffffff1673ffffffffffffffffffffffffffffffffffffffff1681526020019060010190808311611596575b5050505050905090565b6115f2611676565b600073ffffffffffffffffffffffffffffffffffffffff168173ffffffffffffffffffffffffffffffffffffffff16036116645760006040517f1e4fbdf700000000000000000000000000000000000000000000000000000000815260040161165b9190611c98565b60405180910390fd5b61166d81611973565b50565b61012c81565b61167e611a37565b73ffffffffffffffffffffffffffffffffffffffff1661169c610abf565b73ffffffffffffffffffffffffffffffffffffffff16146116fb576116bf611a37565b6040517f118cdaa70000000000000000000000000000000000000000000000000000000081526004016116f29190611c98565b60405180910390fd5b565b60008061170983610aee565b90506000810361171d57600091505061191f565b806002541015611762576040517f08c379a0000000000000000000000000000000000000000000000000000000008152600401611759906125ea565b60405180910390fd5b6000600660008573ffffffffffffffffffffffffffffffffffffffff1673ffffffffffffffffffffffffffffffffffffffff1681526020019081526020016000209050428160020181905550600060648260030154846117c29190612274565b6117cc91906122e5565b9050600081846117dc9190612003565b905083600260008282546117f09190612003565b9250508190555081600360008282546118099190612037565b9250508190555060008111156118c75760008673ffffffffffffffffffffffffffffffffffffffff168260405161183f9061209c565b60006040518083038185875af1925050503d806000811461187c576040519150601f19603f3d011682016040523d82523d6000602084013e611881565b606091505b50509050806118c5576040517f08c379a00000000000000000000000000000000000000000000000000000000081526004016118bc906120fd565b60405180910390fd5b505b8573ffffffffffffffffffffffffffffffffffffffff167ff279e6a1f5e320cca91135676d9cb6e44ca8a08c0b88342bcdb1144f6511b568828460405161190f92919061260a565b60405180910390a2809450505050505b919050565b600260015403611960576040517f3ee5aeb500000000000000000000000000000000000000000000000000000000815260040160405180910390fd5b6002600181905550565b60018081905550565b60008060009054906101000a900473ffffffffffffffffffffffffffffffffffffffff169050816000806101000a81548173ffffffffffffffffffffffffffffffffffffffff021916908373ffffffffffffffffffffffffffffffffffffffff1602179055508173ffffffffffffffffffffffffffffffffffffffff168173ffffffffffffffffffffffffffffffffffffffff167f8be0079c531659141344cd1fd0a4f28419497f9722a3daafe3b4186f6b6457e060405160405180910390a35050565b600033905090565b600080fd5b600080fd5b600073ffffffffffffffffffffffffffffffffffffffff82169050919050565b6000611a7482611a49565b9050919050565b611a8481611a69565b8114611a8f57600080fd5b50565b600081359050611aa181611a7b565b92915050565b600060208284031215611abd57611abc611a3f565b5b6000611acb84828501611a92565b91505092915050565b6000819050919050565b611ae781611ad4565b82525050565b6000602082019050611b026000830184611ade565b92915050565b611b1181611ad4565b8114611b1c57600080fd5b50565b600081359050611b2e81611b08565b92915050565b600080fd5b600080fd5b600080fd5b60008083601f840112611b5957611b58611b34565b5b8235905067ffffffffffffffff811115611b7657611b75611b39565b5b602083019150836001820283011115611b9257611b91611b3e565b5b9250929050565b60008060008060608587031215611bb357611bb2611a3f565b5b6000611bc187828801611a92565b9450506020611bd287828801611b1f565b935050604085013567ffffffffffffffff811115611bf357611bf2611a44565b5b611bff87828801611b43565b925092505092959194509250565b60008115159050919050565b611c2281611c0d565b82525050565b600060c082019050611c3d6000830189611ade565b611c4a6020830188611ade565b611c576040830187611ade565b611c646060830186611ade565b611c716080830185611c19565b611c7e60a0830184611c19565b979650505050505050565b611c9281611a69565b82525050565b6000602082019050611cad6000830184611c89565b92915050565b600060208284031215611cc957611cc8611a3f565b5b6000611cd784828501611b1f565b91505092915050565b600080600060608486031215611cf957611cf8611a3f565b5b6000611d0786828701611a92565b9350506020611d1886828701611b1f565b9250506040611d2986828701611b1f565b9150509250925092565b600081519050919050565b600082825260208201905092915050565b6000819050602082019050919050565b611d6881611a69565b82525050565b6000611d7a8383611d5f565b60208301905092915050565b6000602082019050919050565b6000611d9e82611d33565b611da88185611d3e565b9350611db383611d4f565b8060005b83811015611de4578151611dcb8882611d6e565b9750611dd683611d86565b925050600181019050611db7565b5085935050505092915050565b60006020820190508181036000830152611e0b8184611d93565b905092915050565b600082825260208201905092915050565b7f53747265616d20646f6573206e6f742065786973740000000000000000000000600082015250565b6000611e5a601583611e13565b9150611e6582611e24565b602082019050919050565b60006020820190508181036000830152611e8981611e4d565b9050919050565b7f496e76616c696420616464726573730000000000000000000000000000000000600082015250565b6000611ec6600f83611e13565b9150611ed182611e90565b602082019050919050565b60006020820190508181036000830152611ef581611eb9565b9050919050565b7f416d6f756e74206d757374206265203e20300000000000000000000000000000600082015250565b6000611f32601283611e13565b9150611f3d82611efc565b602082019050919050565b60006020820190508181036000830152611f6181611f25565b9050919050565b7f496e73756666696369656e742074726561737572790000000000000000000000600082015250565b6000611f9e601583611e13565b9150611fa982611f68565b602082019050919050565b60006020820190508181036000830152611fcd81611f91565b9050919050565b7f4e487b7100000000000000000000000000000000000000000000000000000000600052601160045260246000fd5b600061200e82611ad4565b915061201983611ad4565b925082820390508181111561203157612030611fd4565b5b92915050565b600061204282611ad4565b915061204d83611ad4565b925082820190508082111561206557612064611fd4565b5b92915050565b600081905092915050565b50565b600061208660008361206b565b915061209182612076565b600082019050919050565b60006120a782612079565b9150819050919050565b7f5472616e73666572206661696c65640000000000000000000000000000000000600082015250565b60006120e7600f83611e13565b91506120f2826120b1565b602082019050919050565b60006020820190508181036000830152612116816120da565b9050919050565b82818337600083830152505050565b6000601f19601f8301169050919050565b60006121498385611e13565b935061215683858461211d565b61215f8361212c565b840190509392505050565b600060408201905061217f6000830186611ade565b818103602083015261219281848661213d565b9050949350505050565b7f4e6f2073747265616d20666f756e640000000000000000000000000000000000600082015250565b60006121d2600f83611e13565b91506121dd8261219c565b602082019050919050565b60006020820190508181036000830152612201816121c5565b9050919050565b7f53747265616d2069732070617573656400000000000000000000000000000000600082015250565b600061223e601083611e13565b915061224982612208565b602082019050919050565b6000602082019050818103600083015261226d81612231565b9050919050565b600061227f82611ad4565b915061228a83611ad4565b925082820261229881611ad4565b915082820484148315176122af576122ae611fd4565b5b5092915050565b7f4e487b7100000000000000000000000000000000000000000000000000000000600052601260045260246000fd5b60006122f082611ad4565b91506122fb83611ad4565b92508261230b5761230a6122b6565b5b828204905092915050565b7f496e76616c696420656d706c6f79656520616464726573730000000000000000600082015250565b600061234c601883611e13565b915061235782612316565b602082019050919050565b6000602082019050818103600083015261237b8161233f565b9050919050565b7f53747265616d20616c7265616479206578697374730000000000000000000000600082015250565b60006123b8601583611e13565b91506123c382612382565b602082019050919050565b600060208201905081810360008301526123e7816123ab565b9050919050565b7f5461782063616e6e6f7420657863656564203130302500000000000000000000600082015250565b6000612424601683611e13565b915061242f826123ee565b602082019050919050565b6000602082019050818103600083015261245381612417565b9050919050565b7f53747265616d20616c7265616479207061757365640000000000000000000000600082015250565b6000612490601583611e13565b915061249b8261245a565b602082019050919050565b600060208201905081810360008301526124bf81612483565b9050919050565b7f53747265616d20616c7265616479206163746976650000000000000000000000600082015250565b60006124fc601583611e13565b9150612507826124c6565b602082019050919050565b6000602082019050818103600083015261252b816124ef565b9050919050565b7f4e6f2074617820636f6c6c656374656400000000000000000000000000000000600082015250565b6000612568601083611e13565b915061257382612532565b602082019050919050565b600060208201905081810360008301526125978161255b565b9050919050565b7f496e73756666696369656e742074726561737572792062616c616e6365000000600082015250565b60006125d4601d83611e13565b91506125df8261259e565b602082019050919050565b60006020820190508181036000830152612603816125c7565b9050919050565b600060408201905061261f6000830185611ade565b61262c6020830184611ade565b939250505056fea2646970667358221220cce37eb3f80a1d0bbab6dbe820406681be6ba325b9fa44f185ca0f599f71172164736f6c63430008140033",
  "linkReferences": {},
  "deployedLinkReferences": {}
}