{
  "_format": "hh-sol-artifact-1",
  "contractName": "PayStream",
  "sourceName": "contracts/PayStream.sol",
  "abi": [
    {
      "inputs": [
        {
          "internalType": "address",
          "name": "_hlusd",
          "type": "address"
        }
      ],
      "stateMutability": "nonpayable",
      "type": "constructor"
    },
    {
      "inputs": [
        {
          "internalType": "address",
          "name": "owner",
          "type": "address"
        }
      ],
      "name": "OwnableInvalidOwner",
      "type": "error"
    },
    {
      "inputs": [
        {
          "internalType": "address",
          "name": "account",
          "type": "address"
        }
      ],
      "name": "OwnableUnauthorizedAccount",
      "type": "error"
    },
    {
      "inputs": [],
      "name": "ReentrancyGuardReentrantCall",
      "type": "error"
    },
    {
      "inputs": [
        {
          "internalType": "address",
          "name": "token",
          "type": "address"
        }
      ],
      "name": "SafeERC20FailedOperation",
      "type": "error"
    },
    {
      "anonymous": false,
      "inputs": [
        {
          "indexed": true,
          "internalType": "address",
          "name": "employee",
          "type": "address"
        },
        {
          "indexed": false,
          "internalType": "uint256",
          "name": "amount",
          "type": "uint256"
        },
        {
          "indexed": false,
          "internalType": "string",
          "name": "reason",
          "type": "string"
        }
      ],
      "name": "BonusSent",
      "type": "event"
    },
    {
      "anonymous": false,
      "inputs": [
        {
          "indexed": true,
          "internalType": "address",
          "name": "sender",
          "type": "address"
        },
        {
          "indexed": false,
          "internalType": "uint256",
          "name": "amount",
          "type": "uint256"
        }
      ],
      "name": "Deposit",
      "type": "event"
    },
    {
      "anonymous": false,
      "inputs": [
        {
          "indexed": true,
          "internalType": "address",
          "name": "previousOwner",
          "type": "address"
        },
        {
          "indexed": true,
          "internalType": "address",
          "name": "newOwner",
          "type": "address"
        }
      ],
      "name": "OwnershipTransferred",
      "type": "event"
    },
    {
      "anonymous": false,
      "inputs": [
        {
          "indexed": true,
          "internalType": "address",
          "name": "employee",
          "type": "address"
        },
        {
          "indexed": false,
          "internalType": "uint256",
          "name": "finalPayout",
          "type": "uint256"
        }
      ],
      "name": "StreamCancelled",
      "type": "event"
    },
    {
      "anonymous": false,
      "inputs": [
        {
          "indexed": true,
          "internalType": "address",
          "name": "employee",
          "type": "address"
        },
        {
          "indexed": false,
          "internalType": "uint256",
          "name": "ratePerSecond",
          "type": "uint256"
        }
      ],
      "name": "StreamCreated",
      "type": "event"
    },
    {
      "anonymous": false,
      "inputs": [
        {
          "indexed": true,
          "internalType": "address",
          "name": "employee",
          "type": "address"
        }
      ],
      "name": "StreamPaused",
      "type": "event"
    },
    {
      "anonymous": false,
      "inputs": [
        {
          "indexed": true,
          "internalType": "address",
          "name": "employee",
          "type": "address"
        }
      ],
      "name": "StreamResumed",
      "type": "event"
    },
    {
      "anonymous": false,
      "inputs": [
        {
          "indexed": false,
          "internalType": "uint256",
          "name": "amount",
          "type": "uint256"
        }
      ],
      "name": "TaxWithdrawn",
      "type": "event"
    },
    {
      "anonymous": false,
      "inputs": [
        {
          "indexed": true,
          "internalType": "address",
          "name": "employee",
          "type": "address"
        },
        {
          "indexed": false,
          "internalType": "uint256",
          "name": "amount",
          "type": "uint256"
        },
        {
          "indexed": false,
          "internalType": "uint256",
          "name": "tax",
          "type": "uint256"
        }
      ],
      "name": "Withdraw",
      "type": "event"
    },
    {
      "inputs": [],
      "name": "YIELD_RATE_BPS",
      "outputs": [
        {
          "internalType": "uint256",
          "name": "",
          "type": "uint256"
        }
      ],
      "stateMutability": "view",
      "type": "function"
    },
    {
      "inputs": [
        {
          "internalType": "address",
          "name": "",
          "type": "address"
        }
      ],
      "name": "bonusReceived",
      "outputs": [
        {
          "internalType": "uint256",
          "name": "",
          "type": "uint256"
        }
      ],
      "stateMutability": "view",
      "type": "function"
    },
    {
      "inputs": [
        {
          "internalType": "address",
          "name": "employee",
          "type": "address"
        }
      ],
      "name": "cancelStream",
      "outputs": [],
      "stateMutability": "nonpayable",
      "type": "function"
    },
    {
      "inputs": [
        {
          "internalType": "address",
          "name": "employee",
          "type": "address"
        },
        {
          "internalType": "uint256",
          "name": "ratePerSecond",
          "type": "uint256"
        },
        {
          "internalType": "uint256",
          "name": "taxPercent",
          "type": "uint256"
        }
      ],
      "name": "createStream",
      "outputs": [],
      "stateMutability": "nonpayable",
      "type": "function"
    },
    {
      "inputs": [
        {
          "internalType": "uint256",
          "name": "amount",
          "type": "uint256"
        }
      ],
      "name": "deposit",
      "outputs": [],
      "stateMutability": "nonpayable",
      "type": "function"
    },
    {
      "inputs": [
        {
          "internalType": "uint256",
          "name": "",
          "type": "uint256"
        }
      ],
      "name": "employeeList",
      "outputs": [
        {
          "internalType": "address",
          "name": "",
          "type": "address"
        }
      ],
      "stateMutability": "view",
      "type": "function"
    },
    {
      "inputs": [
        {
          "internalType": "address",
          "name": "employee",
          "type": "address"
        }
      ],
      "name": "getAccrued",
      "outputs": [
        {
          "internalType": "uint256",
          "name": "",
          "type": "uint256"
        }
      ],
      "stateMutability": "view",
      "type": "function"
    },
    {
      "inputs": [],
      "name": "getAllEmployees",
      "outputs": [
        {
          "internalType": "address[]",
          "name": "",
          "type": "address[]"
        }
      ],
      "stateMutability": "view",
      "type": "function"
    },
    {
      "inputs": [],
      "name": "getYieldAccrued",
      "outputs": [
        {
          "internalType": "uint256",
          "name": "",
          "type": "uint256"
        }
      ],
      "stateMutability": "view",
      "type": "function"
    },
    {
      "inputs": [],
      "name": "hlusd",
      "outputs": [
        {
          "internalType": "contract IERC20",
          "name": "",
          "type": "address"
        }
      ],
      "stateMutability": "view",
      "type": "function"
    },
    {
      "inputs": [],
      "name": "owner",
      "outputs": [
        {
          "internalType": "address",
          "name": "",
          "type": "address"
        }
      ],
      "stateMutability": "view",
      "type": "function"
    },
    {
      "inputs": [
        {
          "internalType": "address",
          "name": "employee",
          "type": "address"
        }
      ],
      "name": "pauseStream",
      "outputs": [],
      "stateMutability": "nonpayable",
      "type": "function"
    },
    {
      "inputs": [],
      "name": "renounceOwnership",
      "outputs": [],
      "stateMutability": "nonpayable",
      "type": "function"
    },
    {
      "inputs": [
        {
          "internalType": "address",
          "name": "employee",
          "type": "address"
        }
      ],
      "name": "resumeStream",
      "outputs": [],
      "stateMutability": "nonpayable",
      "type": "function"
    },
    {
      "inputs": [
        {
          "internalType": "address",
          "name": "employee",
          "type": "address"
        },
        {
          "internalType": "uint256",
          "name": "amount",
          "type": "uint256"
        },
        {
          "internalType": "string",
          "name": "reason",
          "type": "string"
        }
      ],
      "name": "sendBonus",
      "outputs": [],
      "stateMutability": "nonpayable",
      "type": "function"
    },
    {
      "inputs": [
        {
          "internalType": "address",
          "name": "",
          "type": "address"
        }
      ],
      "name": "streams",
      "outputs": [
        {
          "internalType": "uint256",
          "name": "ratePerSecond",
          "type": "uint256"
        },
        {
          "internalType": "uint256",
          "name": "startTime",
          "type": "uint256"
        },
        {
          "internalType": "uint256",
          "name": "lastWithdrawTime",
          "type": "uint256"
        },
        {
          "internalType": "uint256",
          "name": "taxPercent",
          "type": "uint256"
        },
        {
          "internalType": "bool",
          "name": "active",
          "type": "bool"
        },
        {
          "internalType": "bool",
          "name": "exists",
          "type": "bool"
        }
      ],
      "stateMutability": "view",
      "type": "function"
    },
    {
      "inputs": [],
      "name": "taxVaultBalance",
      "outputs": [
        {
          "internalType": "uint256",
          "name": "",
          "type": "uint256"
        }
      ],
      "stateMutability": "view",
      "type": "function"
    },
    {
      "inputs": [],
      "name": "totalBonusesPaid",
      "outputs": [
        {
          "internalType": "uint256",
          "name": "",
          "type": "uint256"
        }
      ],
      "stateMutability": "view",
      "type": "function"
    },
    {
      "inputs": [
        {
          "internalType": "address",
          "name": "newOwner",
          "type": "address"
        }
      ],
      "name": "transferOwnership",
      "outputs": [],
      "stateMutability": "nonpayable",
      "type": "function"
    },
    {
      "inputs": [],
      "name": "treasuryBalance",
      "outputs": [
        {
          "internalType": "uint256",
          "name": "",
          "type": "uint256"
        }
      ],
      "stateMutability": "view",
      "type": "function"
    },
    {
      "inputs": [],
      "name": "treasuryDepositTime",
      "outputs": [
        {
          "internalType": "uint256",
          "name": "",
          "type": "uint256"
        }
      ],
      "stateMutability": "view",
      "type": "function"
    },
    {
      "inputs": [],
      "name": "withdraw",
      "outputs": [],
      "stateMutability": "nonpayable",
      "type": "function"
    },
    {
      "inputs": [],
      "name": "withdrawTax",
      "outputs": [],
      "stateMutability": "nonpayable",
      "type": "function"
    }
  ],
  "bytecode": "0x60806040523480156200001157600080fd5b506040516200296938038062002969833981810160405281019062000037919062000243565b33600073ffffffffffffffffffffffffffffffffffffffff168173ffffffffffffffffffffffffffffffffffffffff1603620000ad5760006040517f1e4fbdf7000000000000000000000000000000000000000000000000000000008152600401620000a4919062000286565b60405180910390fd5b620000be816200011560201b60201c565b506001808190555080600260006101000a81548173ffffffffffffffffffffffffffffffffffffffff021916908373ffffffffffffffffffffffffffffffffffffffff1602179055504260068190555050620002a3565b60008060009054906101000a900473ffffffffffffffffffffffffffffffffffffffff169050816000806101000a81548173ffffffffffffffffffffffffffffffffffffffff021916908373ffffffffffffffffffffffffffffffffffffffff1602179055508173ffffffffffffffffffffffffffffffffffffffff168173ffffffffffffffffffffffffffffffffffffffff167f8be0079c531659141344cd1fd0a4f28419497f9722a3daafe3b4186f6b6457e060405160405180910390a35050565b600080fd5b600073ffffffffffffffffffffffffffffffffffffffff82169050919050565b60006200020b82620001de565b9050919050565b6200021d81620001fe565b81146200022957600080fd5b50565b6000815190506200023d8162000212565b92915050565b6000602082840312156200025c576200025b620001d9565b5b60006200026c848285016200022c565b91505092915050565b6200028081620001fe565b82525050565b60006020820190506200029d600083018462000275565b92915050565b6126b680620002b36000396000f3fe608060405234801561001057600080fd5b506004361061014d5760003560e01c8063b6b55f25116100c3578063d7290fed1161007c578063d7290fed1461036b578063dfa20f0a14610387578063e1f0cadb14610391578063e3366fed146103af578063f2fde38b146103cd578063f3b16178146103e95761014d565b8063b6b55f25146102ab578063c3b2d07a146102c7578063c4663add146102f7578063cd9e3fe814610315578063cf72c7bb14610331578063cfa0e4e51461034f5761014d565b806363f44d1e1161011557806363f44d1e146101d0578063715018a614610200578063836992751461020a5780638da5cb5b1461023f5780638f8852261461025d5780639869e1371461027b5761014d565b80630bf2b21a14610152578063313dab201461016e578063332172351461018c5780633c5ea4c0146101a85780633ccfd60b146101c6575b600080fd5b61016c60048036038101906101679190611acc565b610407565b005b610176610587565b6040516101839190611b12565b60405180910390f35b6101a660048036038101906101a19190611bbe565b61058d565b005b6101b06107c9565b6040516101bd9190611b12565b60405180910390f35b6101ce6107cf565b005b6101ea60048036038101906101e59190611acc565b610909565b6040516101f79190611b12565b60405180910390f35b610208610921565b005b610224600480360381019061021f9190611acc565b610935565b60405161023696959493929190611c4d565b60405180910390f35b61024761098b565b6040516102549190611cbd565b60405180910390f35b6102656109b4565b6040516102729190611b12565b60405180910390f35b61029560048036038101906102909190611acc565b6109ba565b6040516102a29190611b12565b60405180910390f35b6102c560048036038101906102c09190611cd8565b610ab1565b005b6102e160048036038101906102dc9190611cd8565b610bc7565b6040516102ee9190611cbd565b60405180910390f35b6102ff610c06565b60405161030c9190611b12565b60405180910390f35b61032f600480360381019061032a9190611d05565b610c6c565b005b610339610f4a565b6040516103469190611b12565b60405180910390f35b61036960048036038101906103649190611acc565b610f50565b005b61038560048036038101906103809190611acc565b611121565b005b61038f611330565b005b610399611418565b6040516103a69190611db7565b60405180910390f35b6103b761143e565b6040516103c49190611e90565b60405180910390f35b6103e760048036038101906103e29190611acc565b6114cc565b005b6103f1611552565b6040516103fe9190611b12565b60405180910390f35b61040f611558565b600760008273ffffffffffffffffffffffffffffffffffffffff1673ffffffffffffffffffffffffffffffffffffffff16815260200190815260200160002060040160019054906101000a900460ff1661049e576040517f08c379a000000000000000000000000000000000000000000000000000000000815260040161049590611f0f565b60405180910390fd5b60006104a9826115df565b9050600760008373ffffffffffffffffffffffffffffffffffffffff1673ffffffffffffffffffffffffffffffffffffffff1681526020019081526020016000206000808201600090556001820160009055600282016000905560038201600090556004820160006101000a81549060ff02191690556004820160016101000a81549060ff021916905550508173ffffffffffffffffffffffffffffffffffffffff167faa0e98a1d5c3185ee3383cda00889be32c0dab109b50a7f8d91aa77b3c749aae8260405161057b9190611b12565b60405180910390a25050565b60035481565b610595611558565b61059d6117a6565b600073ffffffffffffffffffffffffffffffffffffffff168473ffffffffffffffffffffffffffffffffffffffff160361060c576040517f08c379a000000000000000000000000000000000000000000000000000000000815260040161060390611f7b565b60405180910390fd5b6000831161064f576040517f08c379a000000000000000000000000000000000000000000000000000000000815260040161064690611fe7565b60405180910390fd5b826003541015610694576040517f08c379a000000000000000000000000000000000000000000000000000000000815260040161068b90612053565b60405180910390fd5b82600360008282546106a691906120a2565b9250508190555082600560008282546106bf91906120d6565b9250508190555082600860008673ffffffffffffffffffffffffffffffffffffffff1673ffffffffffffffffffffffffffffffffffffffff168152602001908152602001600020600082825461071591906120d6565b925050819055506107698484600260009054906101000a900473ffffffffffffffffffffffffffffffffffffffff1673ffffffffffffffffffffffffffffffffffffffff166117ec9092919063ffffffff16565b8373ffffffffffffffffffffffffffffffffffffffff167f069aa47cf4c020a0945eb5384916b03c5a1c8e75dd0296043f08e812934327748484846040516107b393929190612157565b60405180910390a26107c361186b565b50505050565b60055481565b6107d76117a6565b600760003373ffffffffffffffffffffffffffffffffffffffff1673ffffffffffffffffffffffffffffffffffffffff16815260200190815260200160002060040160019054906101000a900460ff16610866576040517f08c379a000000000000000000000000000000000000000000000000000000000815260040161085d906121d5565b60405180910390fd5b600760003373ffffffffffffffffffffffffffffffffffffffff1673ffffffffffffffffffffffffffffffffffffffff16815260200190815260200160002060040160009054906101000a900460ff166108f5576040517f08c379a00000000000000000000000000000000000000000000000000000000081526004016108ec90612241565b60405180910390fd5b6108fe336115df565b5061090761186b565b565b60086020528060005260406000206000915090505481565b610929611558565b6109336000611874565b565b60076020528060005260406000206000915090508060000154908060010154908060020154908060030154908060040160009054906101000a900460ff16908060040160019054906101000a900460ff16905086565b60008060009054906101000a900473ffffffffffffffffffffffffffffffffffffffff16905090565b60065481565b600080600760008473ffffffffffffffffffffffffffffffffffffffff1673ffffffffffffffffffffffffffffffffffffffff1681526020019081526020016000206040518060c0016040529081600082015481526020016001820154815260200160028201548152602001600382015481526020016004820160009054906101000a900460ff161515151581526020016004820160019054906101000a900460ff16151515158152505090508060a001511580610a7a57508060800151155b15610a89576000915050610aac565b8060000151816040015142610a9e91906120a2565b610aa89190612261565b9150505b919050565b610ab9611558565b60008111610afc576040517f08c379a0000000000000000000000000000000000000000000000000000000008152600401610af390611fe7565b60405180910390fd5b610b4b333083600260009054906101000a900473ffffffffffffffffffffffffffffffffffffffff1673ffffffffffffffffffffffffffffffffffffffff16611938909392919063ffffffff16565b8060036000828254610b5d91906120d6565b92505081905550600060065403610b7657426006819055505b3373ffffffffffffffffffffffffffffffffffffffff167fe1fffcc4923d04b559f4d29a8bfc6cda04eb5b0d3c460751c2402c5c5cc9109c82604051610bbc9190611b12565b60405180910390a250565b60098181548110610bd757600080fd5b906000526020600020016000915054906101000a900473ffffffffffffffffffffffffffffffffffffffff1681565b6000806003541480610c1a57506000600654145b15610c285760009050610c69565b600060065442610c3891906120a2565b905064496cebb8008161012c600354610c519190612261565b610c5b9190612261565b610c6591906122d2565b9150505b90565b610c74611558565b600073ffffffffffffffffffffffffffffffffffffffff168373ffffffffffffffffffffffffffffffffffffffff1603610ce3576040517f08c379a0000000000000000000000000000000000000000000000000000000008152600401610cda9061234f565b60405180910390fd5b600760008473ffffffffffffffffffffffffffffffffffffffff1673ffffffffffffffffffffffffffffffffffffffff16815260200190815260200160002060040160019054906101000a900460ff1615610d73576040517f08c379a0000000000000000000000000000000000000000000000000000000008152600401610d6a906123bb565b60405180910390fd5b6064811115610db7576040517f08c379a0000000000000000000000000000000000000000000000000000000008152600401610dae90612427565b60405180910390fd5b6040518060c0016040528083815260200142815260200142815260200182815260200160011515815260200160011515815250600760008573ffffffffffffffffffffffffffffffffffffffff1673ffffffffffffffffffffffffffffffffffffffff1681526020019081526020016000206000820151816000015560208201518160010155604082015181600201556060820151816003015560808201518160040160006101000a81548160ff02191690831515021790555060a08201518160040160016101000a81548160ff0219169083151502179055509050506009839080600181540180825580915050600190039060005260206000200160009091909190916101000a81548173ffffffffffffffffffffffffffffffffffffffff021916908373ffffffffffffffffffffffffffffffffffffffff1602179055508273ffffffffffffffffffffffffffffffffffffffff167f1bd63527042f119292b792487cee2f3e2f788737aa8ce9c0b5e79a2e17bd6bab83604051610f3d9190611b12565b60405180910390a2505050565b60045481565b610f58611558565b600760008273ffffffffffffffffffffffffffffffffffffffff1673ffffffffffffffffffffffffffffffffffffffff16815260200190815260200160002060040160019054906101000a900460ff16610fe7576040517f08c379a0000000000000000000000000000000000000000000000000000000008152600401610fde90611f0f565b60405180910390fd5b600760008273ffffffffffffffffffffffffffffffffffffffff1673ffffffffffffffffffffffffffffffffffffffff16815260200190815260200160002060040160009054906101000a900460ff16611076576040517f08c379a000000000000000000000000000000000000000000000000000000000815260040161106d90612493565b60405180910390fd5b61107f816115df565b506000600760008373ffffffffffffffffffffffffffffffffffffffff1673ffffffffffffffffffffffffffffffffffffffff16815260200190815260200160002060040160006101000a81548160ff0219169083151502179055508073ffffffffffffffffffffffffffffffffffffffff167fa3cec158dd61ad7fad02b025a7140acc826d6e778f78db24b46ff4868013d4dd60405160405180910390a250565b611129611558565b600760008273ffffffffffffffffffffffffffffffffffffffff1673ffffffffffffffffffffffffffffffffffffffff16815260200190815260200160002060040160019054906101000a900460ff166111b8576040517f08c379a00000000000000000000000000000000000000000000000000000000081526004016111af90611f0f565b60405180910390fd5b600760008273ffffffffffffffffffffffffffffffffffffffff1673ffffffffffffffffffffffffffffffffffffffff16815260200190815260200160002060040160009054906101000a900460ff1615611248576040517f08c379a000000000000000000000000000000000000000000000000000000000815260040161123f906124ff565b60405180910390fd5b6001600760008373ffffffffffffffffffffffffffffffffffffffff1673ffffffffffffffffffffffffffffffffffffffff16815260200190815260200160002060040160006101000a81548160ff02191690831515021790555042600760008373ffffffffffffffffffffffffffffffffffffffff1673ffffffffffffffffffffffffffffffffffffffff168152602001908152602001600020600201819055508073ffffffffffffffffffffffffffffffffffffffff167f9daa495ea50c111ff2e29a61b762a95626864c63ed421249d542c4480892a3ec60405160405180910390a250565b611338611558565b6000600454905060008111611382576040517f08c379a00000000000000000000000000000000000000000000000000000000081526004016113799061256b565b60405180910390fd5b60006004819055506113de61139561098b565b82600260009054906101000a900473ffffffffffffffffffffffffffffffffffffffff1673ffffffffffffffffffffffffffffffffffffffff166117ec9092919063ffffffff16565b7fe161304d535664a41d07c34f4cd2ba815cdb901b859cf3da44bb8f25031e5cb88160405161140d9190611b12565b60405180910390a150565b600260009054906101000a900473ffffffffffffffffffffffffffffffffffffffff1681565b606060098054806020026020016040519081016040528092919081815260200182805480156114c257602002820191906000526020600020905b8160009054906101000a900473ffffffffffffffffffffffffffffffffffffffff1673ffffffffffffffffffffffffffffffffffffffff1681526020019060010190808311611478575b5050505050905090565b6114d4611558565b600073ffffffffffffffffffffffffffffffffffffffff168173ffffffffffffffffffffffffffffffffffffffff16036115465760006040517f1e4fbdf700000000000000000000000000000000000000000000000000000000815260040161153d9190611cbd565b60405180910390fd5b61154f81611874565b50565b61012c81565b6115606119ba565b73ffffffffffffffffffffffffffffffffffffffff1661157e61098b565b73ffffffffffffffffffffffffffffffffffffffff16146115dd576115a16119ba565b6040517f118cdaa70000000000000000000000000000000000000000000000000000000081526004016115d49190611cbd565b60405180910390fd5b565b6000806115eb836109ba565b9050600081036115ff5760009150506117a1565b806003541015611644576040517f08c379a000000000000000000000000000000000000000000000000000000000815260040161163b906125d7565b60405180910390fd5b6000600760008573ffffffffffffffffffffffffffffffffffffffff1673ffffffffffffffffffffffffffffffffffffffff1681526020019081526020016000209050428160020181905550600060648260030154846116a49190612261565b6116ae91906122d2565b9050600081846116be91906120a2565b905083600360008282546116d291906120a2565b9250508190555081600460008282546116eb91906120d6565b925050819055506000811115611749576117488682600260009054906101000a900473ffffffffffffffffffffffffffffffffffffffff1673ffffffffffffffffffffffffffffffffffffffff166117ec9092919063ffffffff16565b5b8573ffffffffffffffffffffffffffffffffffffffff167ff279e6a1f5e320cca91135676d9cb6e44ca8a08c0b88342bcdb1144f6511b56882846040516117919291906125f7565b60405180910390a2809450505050505b919050565b6002600154036117e2576040517f3ee5aeb500000000000000000000000000000000000000000000000000000000815260040160405180910390fd5b6002600181905550565b611866838473ffffffffffffffffffffffffffffffffffffffff1663a9059cbb858560405160240161181f929190612620565b604051602081830303815290604052915060e01b6020820180517bffffffffffffffffffffffffffffffffffffffffffffffffffffffff83818316178352505050506119c2565b505050565b60018081905550565b60008060009054906101000a900473ffffffffffffffffffffffffffffffffffffffff169050816000806101000a81548173ffffffffffffffffffffffffffffffffffffffff021916908373ffffffffffffffffffffffffffffffffffffffff1602179055508173ffffffffffffffffffffffffffffffffffffffff168173ffffffffffffffffffffffffffffffffffffffff167f8be0079c531659141344cd1fd0a4f28419497f9722a3daafe3b4186f6b6457e060405160405180910390a35050565b6119b4848573ffffffffffffffffffffffffffffffffffffffff166323b872dd86868660405160240161196d93929190612649565b604051602081830303815290604052915060e01b6020820180517bffffffffffffffffffffffffffffffffffffffffffffffffffffffff83818316178352505050506119c2565b50505050565b600033905090565b600080602060008451602086016000885af1806119e5576040513d6000823e3d81fd5b3d925060005191505060008214611a00576001811415611a1c565b60008473ffffffffffffffffffffffffffffffffffffffff163b145b15611a5e57836040517f5274afe7000000000000000000000000000000000000000000000000000000008152600401611a559190611cbd565b60405180910390fd5b50505050565b600080fd5b600080fd5b600073ffffffffffffffffffffffffffffffffffffffff82169050919050565b6000611a9982611a6e565b9050919050565b611aa981611a8e565b8114611ab457600080fd5b50565b600081359050611ac681611aa0565b92915050565b600060208284031215611ae257611ae1611a64565b5b6000611af084828501611ab7565b91505092915050565b6000819050919050565b611b0c81611af9565b82525050565b6000602082019050611b276000830184611b03565b92915050565b611b3681611af9565b8114611b4157600080fd5b50565b600081359050611b5381611b2d565b92915050565b600080fd5b600080fd5b600080fd5b60008083601f840112611b7e57611b7d611b59565b5b8235905067ffffffffffffffff811115611b9b57611b9a611b5e565b5b602083019150836001820283011115611bb757611bb6611b63565b5b9250929050565b60008060008060608587031215611bd857611bd7611a64565b5b6000611be687828801611ab7565b9450506020611bf787828801611b44565b935050604085013567ffffffffffffffff811115611c1857611c17611a69565b5b611c2487828801611b68565b925092505092959194509250565b60008115159050919050565b611c4781611c32565b82525050565b600060c082019050611c626000830189611b03565b611c6f6020830188611b03565b611c7c6040830187611b03565b611c896060830186611b03565b611c966080830185611c3e565b611ca360a0830184611c3e565b979650505050505050565b611cb781611a8e565b82525050565b6000602082019050611cd26000830184611cae565b92915050565b600060208284031215611cee57611ced611a64565b5b6000611cfc84828501611b44565b91505092915050565b600080600060608486031215611d1e57611d1d611a64565b5b6000611d2c86828701611ab7565b9350506020611d3d86828701611b44565b9250506040611d4e86828701611b44565b9150509250925092565b6000819050919050565b6000611d7d611d78611d7384611a6e565b611d58565b611a6e565b9050919050565b6000611d8f82611d62565b9050919050565b6000611da182611d84565b9050919050565b611db181611d96565b82525050565b6000602082019050611dcc6000830184611da8565b92915050565b600081519050919050565b600082825260208201905092915050565b6000819050602082019050919050565b611e0781611a8e565b82525050565b6000611e198383611dfe565b60208301905092915050565b6000602082019050919050565b6000611e3d82611dd2565b611e478185611ddd565b9350611e5283611dee565b8060005b83811015611e83578151611e6a8882611e0d565b9750611e7583611e25565b925050600181019050611e56565b5085935050505092915050565b60006020820190508181036000830152611eaa8184611e32565b905092915050565b600082825260208201905092915050565b7f53747265616d20646f6573206e6f742065786973740000000000000000000000600082015250565b6000611ef9601583611eb2565b9150611f0482611ec3565b602082019050919050565b60006020820190508181036000830152611f2881611eec565b9050919050565b7f496e76616c696420616464726573730000000000000000000000000000000000600082015250565b6000611f65600f83611eb2565b9150611f7082611f2f565b602082019050919050565b60006020820190508181036000830152611f9481611f58565b9050919050565b7f416d6f756e74206d757374206265203e20300000000000000000000000000000600082015250565b6000611fd1601283611eb2565b9150611fdc82611f9b565b602082019050919050565b6000602082019050818103600083015261200081611fc4565b9050919050565b7f496e73756666696369656e742074726561737572790000000000000000000000600082015250565b600061203d601583611eb2565b915061204882612007565b602082019050919050565b6000602082019050818103600083015261206c81612030565b9050919050565b7f4e487b7100000000000000000000000000000000000000000000000000000000600052601160045260246000fd5b60006120ad82611af9565b91506120b883611af9565b92508282039050818111156120d0576120cf612073565b5b92915050565b60006120e182611af9565b91506120ec83611af9565b925082820190508082111561210457612103612073565b5b92915050565b82818337600083830152505050565b6000601f19601f8301169050919050565b60006121368385611eb2565b935061214383858461210a565b61214c83612119565b840190509392505050565b600060408201905061216c6000830186611b03565b818103602083015261217f81848661212a565b9050949350505050565b7f4e6f2073747265616d20666f756e640000000000000000000000000000000000600082015250565b60006121bf600f83611eb2565b91506121ca82612189565b602082019050919050565b600060208201905081810360008301526121ee816121b2565b9050919050565b7f53747265616d2069732070617573656400000000000000000000000000000000600082015250565b600061222b601083611eb2565b9150612236826121f5565b602082019050919050565b6000602082019050818103600083015261225a8161221e565b9050919050565b600061226c82611af9565b915061227783611af9565b925082820261228581611af9565b9150828204841483151761229c5761229b612073565b5b5092915050565b7f4e487b7100000000000000000000000000000000000000000000000000000000600052601260045260246000fd5b60006122dd82611af9565b91506122e883611af9565b9250826122f8576122f76122a3565b5b828204905092915050565b7f496e76616c696420656d706c6f79656520616464726573730000000000000000600082015250565b6000612339601883611eb2565b915061234482612303565b602082019050919050565b600060208201905081810360008301526123688161232c565b9050919050565b7f53747265616d20616c7265616479206578697374730000000000000000000000600082015250565b60006123a5601583611eb2565b91506123b08261236f565b602082019050919050565b600060208201905081810360008301526123d481612398565b9050919050565b7f5461782063616e6e6f7420657863656564203130302500000000000000000000600082015250565b6000612411601683611eb2565b915061241c826123db565b602082019050919050565b6000602082019050818103600083015261244081612404565b9050919050565b7f53747265616d20616c7265616479207061757365640000000000000000000000600082015250565b600061247d601583611eb2565b915061248882612447565b602082019050919050565b600060208201905081810360008301526124ac81612470565b9050919050565b7f53747265616d20616c7265616479206163746976650000000000000000000000600082015250565b60006124e9601583611eb2565b91506124f4826124b3565b602082019050919050565b60006020820190508181036000830152612518816124dc565b9050919050565b7f4e6f2074617820636f6c6c656374656400000000000000000000000000000000600082015250565b6000612555601083611eb2565b91506125608261251f565b602082019050919050565b6000602082019050818103600083015261258481612548565b9050919050565b7f496e73756666696369656e742074726561737572792062616c616e6365000000600082015250565b60006125c1601d83611eb2565b91506125cc8261258b565b602082019050919050565b600060208201905081810360008301526125f0816125b4565b9050919050565b600060408201905061260c6000830185611b03565b6126196020830184611b03565b9392505050565b60006040820190506126356000830185611cae565b6126426020830184611b03565b9392505050565b600060608201905061265e6000830186611cae565b61266b6020830185611cae565b6126786040830184611b03565b94935050505056fea2646970667358221220eb105bc9d466fd9e5e99f078c31634ae2671e17833c73ea025fdee9bcda94f3764736f6c63430008140033",
  "linkReferences": {},
  "deployedLinkReferences": {}
}